:020000040800F2
:100000006805002005010008631A00084117000870
:10001000611A0008050300080F1D00080000000019
:10002000000000000000000000000000671A000847
:100030003F03000800000000651A0008691A000864
:100040001F0100081F0100081F0100081F01000810
:100050001F0100081F0100081F0100081F01000800
:100060001F0100081F0100081F0100080903000804
:100070001F0100081F0100081F0100081F010008E0
:100080001F0100081F0100081F0100081F010008D0
:100090001F0100081F0100081F0100081F010008C0
:1000A0001F0100081F0100081F0100081F010008B0
:1000B0001F0100081F0100081F0100081F010008A0
:1000C0001F0100081F0100081F0100081F01000890
:1000D0001F0100081F0100081F0100081F01000880
:1000E000410300081F0100081F010008DFF810D0BD
:1000F00000F054F80048004799210008AFF3008051
:10010000680500200648804706480047FEE7FEE7EE
:10011000FEE7FEE7FEE7FEE7FEE7FEE7FEE7FEE7B7
:10012000D51A0008ED00000840EA01039B0703D040
:1001300009E008C9121F08C0042AFAD203E011F826
:10014000013B00F8013B521EF9D27047D2B201E0E8
:1001500000F8012B491EFBD270470022F6E710B5CC
:1001600013460A4604461946FFF7F0FF204610BD25
:1001700030B50B46014600202022012409E021FA77
:1001800002F59D4205D303FA02F5491B04FA02F574
:100190002844151EA2F10102F1DC30BD064C074DCA
:1001A00006E0E06840F0010394E807009847103447
:1001B000AC42F6D3FFF79EFF94240008B424000855
:1001C00070B5044600688168C943C90717D18168C2
:1001D00021F00101816000F0F3FC05460AE000BF58
:1001E00000F0EEFC401B022804D920688068C04360
:1001F000C00706D020688068C043C007F0D0002048
:1002000070BDA06A40F01000A062E06A40F00100FA
:10021000E062012070BD10B50146406A826A12F0AA
:10022000500F05D0006A026BBDE810400846104729
:10023000816A41F40071816201688968C1F34241B9
:1002400007290CD1017B51B9816A21F48071816247
:10025000816AC90403D4816A41F00101816200F01E
:10026000FBF810BD10B5406A816A41F0400181621F
:10027000C16A41F00401C16200F00AF910BD10B575
:10028000406A00F0EBF810BDF8B500260446009671
:1002900000688168C943C9072DD0816841F0010118
:1002A0008160164816490068B0FBF1F000E0401E7E
:1002B00000900028FBD100F083FC054616E000BF4B
:1002C00000F07EFC401B022810D920688068C043E3
:1002D000C0070BD0A06A40F01000A062E06A40F0B6
:1002E0000100E06284F824600120F8BD2068806885
:1002F000C043C007E4D10020F8BD00002800002062
:1003000040420F00FEE70000014800F02FBA000055
:100310002401002030B590F840500124AC40C56B5A
:100320006C60046863604368102B036803D09960B5
:100330000068C26030BD9A600068C16030BD70471F
:1003400010B54FF4806000F035FBBDE810404FF46D
:10035000006000F02FBB72B6FEE70000F8B5002485
:10036000009490F824202546012A12D0012280F81A
:1003700024204A681F23072A0DD20668776B521E75
:1003800002EB820293409F430B6893401F437763C5
:1003900019E00220F8BD06680D2A0AD2376BD21F79
:1003A00002EB820293409F430B6893401F433763E5
:1003B00009E0F76A0D3A02EB820293409F430B6813
:1003C00093401F43F7620A68072306680A2A0AD384
:1003D000F7680A3A02EB420293409F438B689340CE
:1003E0001F43F76008E0376902EB420293409F43E6
:1003F0008B6893401F4337610A68102A01D0112A85
:1004000020D1124B02689A4217D193681B0219D46B
:10041000936843F4000393600968102912D10C49D2
:100420000C4A0968B1FBF2F101EB8101490000E0DF
:10043000491E00910029FBD104E0816A41F02001AE
:100440008162012480F824502046F8BD0024014038
:100450002800002040420F007047000000680A4951
:10046000884210D1094800F11C0102680A60426804
:100470004A6082688A60C268CA6002690A61426929
:100480004A6180698861704700240140EC000020C7
:10049000704700002DE9F0414FF0000704003D4691
:1004A0007ED0A06A002628B9E66284F8246020463F
:1004B00000F07EF82046FFF783FEA16AC90600D44B
:1004C00020B1A06A40F01000A06269E0A16A21F4A6
:1004D000885141F00201A1626268E169237B0A430D
:1004E00047EA43010A43A1684FF48077B94209D033
:1004F000012907D05FF0000194F814C0BCF1010F8E
:1005000002D00AE03946F7E7F3B1A36A43F02003CB
:10051000A362E36A43F00103E3622368D3F804C0F3
:100520002CF4694C4CEA010CC3F804C021688B68B8
:10053000DFF870C003EA0C0313438B60A168B94273
:100540000BD0012909D00CE0DFF85CC0A3690CEBEB
:1005500043330B4343F40061DFE7218A0D05A5F522
:1005600080152168CB6A23F470032B43CB6221688A
:1005700089680E4B1940914208D1E662A16A21F0C8
:10058000020141F00101A162BDE8F081A06A20F002
:10059000020040F01000A062E06A40F00100E0625A
:1005A0000120F1E7FDF7E1FF00E0FFFFFE0E1FFF76
:1005B00070B586B000260546009601960296039611
:1005C0000068214988423DD12049886940F4007083
:1005D0008861886900F400700490886940F0040024
:1005E0008861886900F004000490886940F0080080
:1005F00088618869032400F008000490F820CDE9A0
:1006000000046946124800F0E1F900946946114877
:10061000019400F0DBF9114C0F48C4E9000680207A
:10062000C4E9026080002061800060612020A06138
:10063000C001E061204600F043F908B1FFF78BFEEE
:100640002C62656206B070BD0024014000100240BB
:1006500000080140000C0140080002402401002075
:100660002DE9F047894604463B4900683B4F0E1D83
:100670009046884201D0B84207D1306810F4702FFC
:1006800003D001252846BDE8F08794F8240001280E
:100690000CD0012084F824002046FFF7F5FD05006A
:1006A0004FF0000004D084F82400EBE70220EAE7D2
:1006B000A16A40F60162914341F48071A162216810
:1006C000B94218D1326812F4702F14D0A16A41F4E3
:1006D0008011A1623168490505D5A16A21F4005154
:1006E00041F48051A162A16AC9040AD5E16A21F0EE
:1006F0000601E16206E0A26A22F48012A262496861
:10070000E9E7E06284F82400216A15488862216ADA
:100710001448C862216A1448086321686FF0020017
:1007200008602068816841F48071816021684346D7
:100730004A464C31206A00F0F1F820688168C1F324
:1007400042410729816803D041F48011816099E713
:1007500041F4A001FAE70000002401400028014014
:10076000170200087F020008650200082DE9F05F0B
:10077000C16B0C6801680B68D0F840C0042202FA13
:100780000CF2494DDFF824A1494E4A4FDFF828B159
:10079000DFF828E122422CD05A072AD50A689206AF
:1007A00003D40A6822F004020A600168A94201D158
:1007B000042219E0514501D1402215E0B14202D195
:1007C0004FF4806210E0B94202D14FF480420BE056
:1007D000594502D14FF4802206E0714502D14FF411
:1007E000800201E04FF080622F4908394A60C16AF7
:1007F0003BE04FF0020808FA0CF818EA040F4FF03B
:1008000000094FF0010235D05FEA837832D50B68DA
:100810009B0605D40B6823F00A030B6080F82120A7
:100820000168A94201D1022219E0514501D12022DB
:1008300015E0B14202D14FF4007210E0B94202D18A
:100840004FF400520BE0594502D14FF4003206E05C
:10085000714502D14FF4001201E04FF000721249CD
:1008600008394A6080F82090816A00291AD0BDE8D2
:10087000F05F0847082505FA0CF5254212D01B0742
:1008800010D50B6823F00E030B6090F84010C36B7B
:1008900002FA01F15960826380F8212080F82090EB
:1008A000016BE2E7BDE8F09F080002401C00024037
:1008B0003000024044000240580002406C000240F8
:1008C00030B528B308C8134914221944B1FBF2F11A
:1008D0008900C16310498163022141771A6843F698
:1008E000F0718A43D0E900142143D0E902452C433A
:1008F000214304692143446921438469214311430D
:10090000196000214163012242770177084630BD1A
:10091000012030BDF8FFFDBF0000024070B5044665
:1009200090F82000002501280CD0012084F8200038
:1009300094F821600020012E06D084F820000225C2
:10094000284670BD022070BD022684F82160A06395
:100950002068066826F0010606602046FFF7DAFCEC
:10096000E06A00282068016802D041F00E0106E02C
:1009700021F0040101602068016841F00A01016072
:100980002068016841F001010160D9E770B50446B3
:1009900000F016F90546601C02D0044800780444B3
:1009A00000F00EF9401BA042FAD370BD1C000020DD
:1009B00070470000044910B50A68024202D008607E
:1009C000FFF7F6FF10BD0000140401402DE9F84FB9
:1009D000DFF8B891002409F1040A0AF1040B234658
:1009E0000F270BF1040EC9E00125A5402A40AA42B9
:1009F0007DD1674ED1F804C0ACEB0608B44532D0C7
:100A000014DCBCF1030F3AD009DCBCF1000F2AD092
:100A1000BCF1010F1CD0BCF1020F31D11DE0BCF1C3
:100A2000110F17D0BCF1120F2AD119E0B8F5881FA9
:100A300019D006DCB8F5803F15D0B8F5801F1FD15E
:100A400011E0B8F5001F0ED0B8F5041F18D10AE068
:100A5000CB6815E0CB681B1D12E0CB6808330FE0B4
:100A6000CB680C330CE08B682BB1012B4FF00803E3
:100A700003D0456104E0042302E0056100E00023A7
:100A8000FF2A01D8064601E000F104064FEA84057A
:100A900001D9A5F12005D6F8008007FA05FC28EA5F
:100AA0000C0803FA05F548EA0508C6F800804D6809
:100AB000ED0062D5374DAE6946F00106AE61AD6915
:100AC00024F0030605F001050095334D06EB050CF7
:100AD000DCF80850A607360F07FA06F825EA0805DD
:100AE000DFF8B880404503D14FF0000817E044E03C
:100AF000DFF8AC80404502D14FF001080FE0DFF88D
:100B0000A480404502D14FF0020808E0DFF8988049
:100B1000404502D14FF0030801E04FF0040808FA05
:100B200006F848EA0508CCF808804D68D9F8006056
:100B3000ED034D4601D5164300E096432E604D6807
:100B4000DAF80060AD03554601D5164300E0964340
:100B50002E604D68DBF80060ED025D4601D516435E
:100B600000E096432E604D68DEF80060AD027546E9
:100B700001D5164300E096432E60641C0D682A469A
:100B8000E5407FF431AFBDE8F88F0000000401407C
:100B90000000111000100240000001400008014058
:100BA000000C014000100140001401408068084022
:100BB00000D0012070470AB1016170470904FBE7CA
:100BC00001488068704700001C00002002488168CE
:100BD00002781144816070471C000020074810B55E
:100BE000016841F010010160032000F075F8002059
:100BF00000F006F800F024F8002010BD00200240AC
:100C000070B50D4D04464FF47A712878B1FBF0F0C1
:100C10000A490968B1FBF0F000F042FB48B9102C1A
:100C200007D200222146501E00F036F800206C60EA
:100C300070BD012070BD00001C00002028000020B5
:100C40000C4808B5816941F001018161816901F0B9
:100C500001010091C16941F08051C161C06900F09A
:100C6000805000900448416821F0E06141F08061CB
:100C7000416008BD0010024000000140002809DB6F
:100C800000F01F02012191404009800000F1E020A6
:100C9000C0F8001170470000F0B40E4B1B680C4602
:100CA000C3F30223C3F10705042D00D90425191D40
:100CB000072901D2002300E0DB1E012606FA05F118
:100CC000491E214099409E40761E16403143F0BC9B
:100CD00001F032B80CED00E0064900F007020868A8
:100CE0004FF6FF03184040EA0220034A1043086011
:100CF000704700000CED00E00000FA052DE9F84314
:100D000005460078354CC00754D0E0690026C00085
:100D100008D4E06940F08050E061E069012600F00D
:100D2000805000902E480168C90512D401688046A1
:100D300041F480710160FFF743FF074605E000BF03
:100D4000FFF73EFFC01B642823D8D8F80000C00579
:100D5000F6D5206A10F4407021D0A98801F44071C2
:100D600081421CD0206A1F49012220F440700A6091
:100D700000220A602062C00711D0FFF721FF07465A
:100D800041F2883808E000BFFFF71AFFC11B414558
:100D900002D90320BDE8F883206A8007F4D5206AD1
:100DA000696820F44070084320621EB1E06920F0B9
:100DB0008050E0612878800705D56068A96820F434
:100DC0004040084360602878C00605D56068E9683F
:100DD00020F48000084360600020DBE70010024040
:100DE00000700040400442422DE9F0470F460500E4
:100DF00061D0434E306800F00700B84209D2306835
:100E000020F0070038433060306800F00700B84237
:100E100051D128683B4C810712D5400703D5606843
:100E200040F4E06060602878000703D5606840F413
:100E3000605060606068A96820F0F000084360605E
:100E40002878C00728D06868012810D021680228B7
:100E500010D0890700292EDA616821F003010143CF
:100E60006160FFF7ADFE804641F288390DE02168F0
:100E70008903EFE78901EDE7FFF7A2FEA0EB080188
:100E8000494502D90320BDE8F0876068696800F031
:100E90000C00B0EB810FEFD1306800F00700B842D2
:100EA0000BD9306820F0070038433060306800F01C
:100EB0000700B84201D00120E5E72878400705D5B2
:100EC0006068E96820F4E060084360602878000703
:100ED00006D56068296920F4605040EAC10060606E
:100EE00000F018F86168084AC1F30311515CC8406A
:100EF0000649086006480068FFF782FE0020C2E746
:100F00000020024000100240842400082800002035
:100F10002000002012A185B00FC98DE80F0014A099
:100F2000144A006804905168134801F00C03042B24
:100F300010D0082B0ED1C1F38343C9031DF8030061
:100F40000AD5516804AAC1F34041515C0A4A504392
:100F5000B0FBF1F005B0704708494843FAE70000DC
:100F600002030405060708090A0B0C0D0E0F1010EA
:100F7000010200000010024000127A0000093D004A
:100F80002DE9F84F040070D02078C04DC00749D03B
:100F90006868C0F38100012807D06868C0F3810049
:100FA000022809D16868C00306D52868800339D5AE
:100FB00060680028E7D035E06068B0F5803F0BD06E
:100FC00010B1B0F5A02F11D0286820F4803028602F
:100FD000286820F4802002E0286840F480302860EF
:100FE000606890B1FFF7ECFD06460AE0286840F41F
:100FF00080202860F0E700BFFFF7E2FD801B642837
:1010000073D828688003F7D50CE0FFF7D9FD0646B2
:1010100005E000BFFFF7D4FD801B6428F0D82868E6
:101020008003F7D420789A4E80074FF001094FF0E3
:10103000000839D5686810F00C0F07D06868C0F355
:101040008100022809D16868C00306D42868800797
:1010500014D52069012808D110E02069B0B1C6F884
:101060000090FFF7ADFD074605E00AE1FFF7A8FD98
:10107000C01B0228C4D828688007F7D52868616992
:1010800020F0F80040EAC10028600DE0C6F80080BA
:10109000FFF796FD074604E0FFF792FDC01B02280C
:1010A00023D828688007F7D4207800072CD5794802
:1010B000A169D9B1C0F80090FFF782FD074604E0AE
:1010C000FFF77EFDC01B02280FD8686A8007F7D59E
:1010D00071484FF4FA510068B0FBF1F0009000BF86
:1010E0000098411E0091FAD20EE080E0C0F8008026
:1010F000FFF766FD074604E0FFF762FDC01B02280C
:1011000075D8686A8007F7D42078400760D5E86909
:101110000027C00008D4E86940F08050E861E86921
:10112000012700F0805000905C480168C90513D485
:101130000168834641F480710160FFF741FD8246FA
:1011400006E000BFFFF73CFDA0EB0A0064284ED884
:10115000DBF80000C005F5D5E06801280AD008B129
:10116000052813D0286A20F001002862286A20F0A0
:10117000040002E0286A40F001002862E06841F2C1
:10118000883B98B1FFF71CFD82460BE0286A40F0CF
:1011900004002862EEE700BFFFF712FDA0EB0A0192
:1011A00059455AD8286A8007F6D50CE0FFF708FDA4
:1011B000824605E0FFF704FDA0EB0A0159454CD833
:1011C000286A8007F6D41FB1E86920F08050E861F2
:1011D000E06988B36968C1F38101022944D002281B
:1011E000C6F8608004D0FFF7EBFC044638E034E03A
:1011F000FFF7E6FC074604E0FFF7E2FCC01B02280D
:101200002BD828688001F7D4206AB0F5803F05D13B
:101210006868A16820F4003008436860D4E90801D8
:101220000843696821F4741108436860C6F8609047
:10123000FFF7C6FC044606E025E000BFFFF7C0FC50
:10124000001B022809D828688001F7D51BE000BFE1
:10125000FFF7B6FC001B022802D90320BDE8F88F77
:1012600028688001F4D40EE00128F7D06868226A6B
:1012700000F48031914204D1616A00F47010884218
:1012800001D00120EAE70020E8E70000001002405A
:1012900000004242800442422800002000700040CA
:1012A00010B5401EB0F1807F01D3012010BD4FF07A
:1012B000E02460610F21601700F03EFD0020A06176
:1012C00007202061002010BD10B590F83C20012AB5
:1012D00022D0012280F83C20CA688C6822F4407237
:1012E00022434C6822F4806222430C6822F400629C
:1012F00022430C6922F4805222434C6922F40052AA
:101300002243C969002322F480420A4301684A64E7
:1013100080F83C30002010BD022010BD70B590F860
:101320003C20012A26D0012480F83C40022280F88B
:101330003D2003685A689D6822F070060A683243AF
:101340005A600D4B02689A4208D0B2F1804F05D026
:101350000A4B9A4202D00A4B9A4204D1496825F0BE
:1013600080031943916080F83D40002180F83C10D3
:10137000084670BD022070BD002C014000040040F2
:101380000008004010B5040003D094F83D0010B1EF
:1013900007E0012010BD002084F83C00204600F04A
:1013A0001FF8022084F83D00211D206800F094FB06
:1013B000012084F8460084F83E0084F83F0084F859
:1013C000400084F8410084F8420084F8430084F827
:1013D000440084F8450084F83D00002010BD000062
:1013E00008B50C4A01680C48914207D1816941F463
:1013F00000618161806900F4006009E0B1F1804F13
:1014000007D1C16941F00101C161C06900F001006B
:10141000009008BD002C01400010024070B5044649
:1014200090F83C00012817D0012584F83C50022098
:1014300084F83D002068826822F0770222F47F421F
:1014400082600868502830D00DDC20284DD005DCA3
:1014500098B310283BD148E0022070BD302844D01A
:10146000402834D139E0602828D0702806D0B0F563
:10147000805F2CD0B0F5005F29D10AE0CB68D1E9BC
:101480000121206800F06BFB2068816841F0770142
:1014900009E0CB68D1E90121206800F060FB2068F9
:1014A000816841F48041816011E0CA684968206820
:1014B00000F00AFC5021206807E016E0CA6849687D
:1014C000206800F012FC6021206800F052FB84F8D4
:1014D0003D50002084F83C0070BDCA68496820680F
:1014E00000F0F2FB40212068EFE722680146104639
:1014F000EBE7000010B586B0002100910191029148
:1015000003911B4C03681B4902221B48A34211D1C3
:101510008B6943F004038B618969039201F0040134
:1015200004914FF47061CDE900126946FFF74EFA5D
:1015300006B010BDB3F1804FFAD18B6943F00403BC
:101540008B618969039201F0040104914FF4004119
:10155000CDE900126946FFF739FA0848416821F4DD
:10156000407141F0E06141F480714160E0E70000CA
:10157000002C014000100240000801400000014022
:1015800070B5044690F83C000D4601280AD00120B1
:1015900084F83C0042B1042A18D0082A2AD00C2A28
:1015A0004DD139E0022070BD206800F0EBFA2068D0
:1015B000816941F0080181612068816921F004019D
:1015C0008161206881692A69114311E0206800F077
:1015D00001FB2068816941F40061816120688169B3
:1015E00021F480618161206881692A6941EA0221D0
:1015F000816124E0206800F019FB2068C16941F096
:101600000801C1612068C16921F00401C16120683D
:10161000C1692A69114311E0206800F033FB20689A
:10162000C16941F40061C1612068C16921F4806130
:10163000C1612068C1692A6941EA0221C1610020B3
:1016400084F83C0070BD10B5040003D094F83D0050
:1016500010B107E0012010BD002084F83C002046B6
:1016600000F01EF8022084F83D00211D206800F0E3
:1016700033FA012084F8460084F83E0084F83F00E5
:1016800084F8400084F8410084F8420084F8430064
:1016900084F8440084F8450084F83D00002010BD23
:1016A0007047000010B50446022249B104290ED04B
:1016B000082913D094F84100012816D0012010BD4C
:1016C00094F83E000128F9D184F83E200FE094F808
:1016D0003F000128F2D184F83F2008E094F8400050
:1016E0000128EBD184F8402001E084F84120012258
:1016F000206800F027FA0F492068884203D1426C25
:1017000042F4004242642068884208D0B0F1804F21
:1017100005D00949884202D00849884204D181682D
:1017200001F00701062903D0016841F001010160C1
:10173000002010BD002C01400004004000080040C3
:10174000FEE70000FEB500213048009101912E4ACD
:1017500002910260921582600124047301750725CD
:101760004FF460220561C2614160FEF793FE08B14B
:1017700072B6FEE70326CDE90064052469462348D6
:101780000294FEF7EBFD08B172B6FEE704270220D3
:10179000CDE9007069461D48FEF7E0FD08B172B65C
:1017A000FEE7CDE9004669461848FEF7D7FD08B1C7
:1017B00072B6FEE7062669461448CDE90067FEF7D3
:1017C000CDFD08B172B6FEE7CDE9005469460F4879
:1017D000FEF7C4FD08B172B6FEE70820CDE90006A9
:1017E00069460A48FEF7BAFD08B172B6FEE709205D
:1017F000CDE9000569460548FEF7B0FD002801D097
:1018000072B6FEE7FEBD0000002401402C0000205F
:101810002DE9F04385B000242A48009401940294F5
:101820000394816941F020018161816901F0200107
:101830000491816941F004018161816901F0040131
:101840000491816941F0080181618069DFF8788045
:1018500000F008000490002203214046FFF7ABF996
:10186000DFF868904FF47047002239464846FFF78A
:10187000A2F9032001250226CDE90005CDE90246A3
:1018800069464046FFF7A2F84FF4406000901048C8
:10189000CDE9010469464846FFF798F8009703969A
:1018A000CDE9015469464846FFF790F800221146F9
:1018B0002820FFF7F1F92820FFF7E0F905B0BDE88F
:1018C000F08300000010024000080140000C0140BD
:1018D0000000111010B596B000240F9410941194CC
:1018E000129413941C2168461494FEF736FC2021B0
:1018F00007A8FEF732FC3448324901602721C0E9CD
:1019000001146321C0E9031444618461FFF73AFDC7
:1019100008B172B6FEE74FF480500F900FA92A4825
:10192000FFF77CFD08B172B6FEE72748FFF78BFE94
:1019300008B172B6FEE7139413A923481494FFF775
:10194000EDFC08B172B6FEE76020CDE90004029418
:10195000039404940594002269461B480694FFF7FB
:101960000FFE08B172B6FEE7042269461648FFF77B
:1019700007FE08B172B6FEE7082269461248FFF773
:10198000FFFD08B172B6FEE70C2269460E48FFF76C
:10199000F7FD08B172B6FEE70794089409944FF476
:1019A00000500A94CDE90B4007A907480E94FFF7B1
:1019B0008BFC08B172B6FEE70348FFF79BFD16B03B
:1019C00010BD0000002C01405C00002010B58EB05E
:1019D00000240794089409940A940B941C216846E7
:1019E0000C94FEF7BAFB1D484FF08041016027219F
:1019F000C0E901146321C0E903148461FFF7C2FC4C
:101A000008B172B6FEE74FF48050079007A913485B
:101A1000FFF704FD08B172B6FEE71048FFF713FEAA
:101A200008B172B6FEE70B940BA90C480C94FFF7B3
:101A300075FC08B172B6FEE76020CDE9000402949F
:101A40000022694605480494FFF79AFD08B172B672
:101A5000FEE70248FFF74EFD0EB010BDA4000020C7
:101A6000FEE7FEE770477047FFF7B0B830B593B0B8
:101A700028216846FEF771FB14210AA8FEF76DFBCA
:101A8000002401200F940225049000951020119449
:101A900005901094129407946846FFF771FA08B104
:101AA00072B6FEE70F20CDE90A040C940D940021D4
:101AB0000AA80E94FFF798F908B172B6FEE70FA8CE
:101AC0000F951194FFF71AF9002801D072B6FEE7BE
:101AD00013B030BD70470000F0B50268164B174CCC
:101AE000174D4FF08047984205D0B84203D0A0422E
:101AF00001D0A84203D122F070064A6832439842CE
:101B000005D0B84203D0A04201D0A84203D122F4AC
:101B10004074CA6822434C6922F08002224302606A
:101B20008A68C2620A688262984201D109690163C7
:101B300001214161F0BD0000002C01400004004083
:101B40000008004010B501F01F030121046A99400C
:101B50008C430462016A9A401143016210BD10B5C2
:101B6000846842EA032224F47F440A4322438260C9
:101B700010BD826822F070020A4342F007018160C2
:101B80007047000030B5026A22F001020262026A68
:101B90004368846924F073050C682C4322F0020525
:101BA0008A682A430A4DA8420BD122F00805CA6868
:101BB00023F440732A434D6922F004021D438B69CC
:101BC0002B434360846149684163026230BD000079
:101BD000002C014030B5026A22F010020262026A53
:101BE000436884690D6824F4E64444EA05248D685A
:101BF00022F0200242EA05120B4DA8420ED1CD6818
:101C000022F0800242EA05124D6923F4406343EA60
:101C100085038D6922F0400243EA850343608461B5
:101C200049688163026230BD002C014030B5026A10
:101C300022F480720262036A4268C46923F400736A
:101C400024F073050C682C438D6843EA05230C4D82
:101C5000A8420ED1CD6823F4006343EA05234D6901
:101C600022F4405242EA05128D6923F4806342EA6D
:101C700005124260C4614968C163036230BD00005F
:101C8000002C014030B5026A22F480520262046ADC
:101C90004268C3690D6823F4E64343EA05238D686F
:101CA00024F4005444EA0534064DA84204D14D6999
:101CB00022F4804242EA85124260C36149680164AD
:101CC000046230BD002C014010B5036A046A24F0A0
:101CD00001040462846924F0F00444EA021423F04D
:101CE0000A020A438461026210BD10B5036A23F040
:101CF000100303628369046A23F4704343EA0232E7
:101D000024F0A00343EA01118261016210BDFEE7E5
:101D10000FB4084B10B504A902AA039800F02CF8E0
:101D2000044602A9002000F0D1F8204610BC5DF85E
:101D300014FB0000CD1E00080907090E002804DB73
:101D400000F1E02080F80014704700F00F0000F16F
:101D5000E02080F8141D704702E008C8121F08C177
:101D6000002AFAD170477047002001E001C1121F1C
:101D7000002AFBD1704700002DE9FF4F89B09B4638
:101D80000446002506E025280BD05A460B999047BB
:101D9000641C6D1C20780028F5D10DB02846BDE8E4
:101DA000F08F0027B8460122474900E0074314F8A6
:101DB000013F203B02FA03F00842F7D120782E2899
:101DC00019D114F8010F47F004072A280ED06FF03C
:101DD0002F022078A0F1300109290CD808EB8801E6
:101DE00002EB410100EB0108641CF2E70A98641C55
:101DF00050F8048B0A9020780028CED0642808D0B0
:101E0000692806D075281ED05A460B9990476D1C3C
:101E100058E00A994FF00A0901C90A91002802DA2C
:101E200040422D2102E0390504D52B218DF82010E8
:101E3000012103E0F90704D02021F7E78A4608AE24
:101E40000DE00021FAE70A994FF00A0901C90A9149
:101E5000F7E74946FEF78CF9303106F8011D0028F6
:101E6000F7D1ADEB060000F12009780701D44FF05F
:101E70000108C84502DDA8EB090000E0002080460B
:101E8000002706E008A85A46C05D0B9990476D1CD4
:101E90007F1C5745F6DB04E030205A460B999047EB
:101EA0006D1CB8F10001A8F10108F5DC05E016F899
:101EB000010B5A460B9990476D1CB9F10001A9F12D
:101EC0000109F4DC641C65E7092801000A68531C59
:101ED0000B601070704700002DE9F04F3D4902463D
:101EE000086840F001000860DFF8E8A002230AF16A
:101EF000080ACAF80030DFF8E0808F14C8F80070D4
:101F00004C14C8F800405D03C8F800509E03C8F8A0
:101F1000006000F0E7F8086840F002000860D006B2
:101F2000A8F1040101D50F6002E04FF08050086075
:101F300090064FF0005B01D50C6001E0C1F800B0E5
:101F4000500601D50D6002E04FF080400860100699
:101F500001D50E6002E04FF00040086000F0C2F8CA
:101F60009946CAF800304346C8F80070C8F80040E7
:101F7000C8F80050C8F8006000F0B4F81548D0F870
:101F800000C04CF0020CC0F800C0D00701D00F60B8
:101F900002E04FF080500860900701D50C6001E02E
:101FA000C1F800B0500701D50D6002E04FF080404D
:101FB0000860100701D50E6002E04FF00040086095
:101FC00000F090F8CAF800901F601C601D601E6051
:101FD000BDE8F08F0C080140140C014010B5012041
:101FE00000F006F8BDE810400220FEF7CFBC00006C
:101FF0002DE9F04FDFF8E08001210246C8F800101B
:102000004FF00209C8F80090344B0F031F604C03D7
:102010001C608D031D60CE031E6000F063F8DFF8C6
:10202000B8A0AAF1080ADAF8001041F00201CAF8D3
:1020300000102B49D0064FF0805B01D50F6001E006
:10204000C1F800B0900601D50C6002E04FF00050DE
:102050000860500601D50D6002E04FF08040086036
:10206000100601D50E6002E04FF00040086000F05D
:1020700039F8C8F800901F601C601D601E6000F0F9
:1020800031F8DAF800C04CF0020CCAF800C0D007F2
:1020900001D00F6001E0C1F800B0900701D50C60DD
:1020A00002E04FF000500860500701D50D6002E0DB
:1020B0004FF080400860100701D50E6002E04FF03D
:1020C0000040086000F00EF8C8F800901F601C6027
:1020D0001D601E60BDE8F08F14080140140C014023
:1020E000100C01404FF47A70401EFDD1704701285A
:1020F00005D0022805D1BF31C8B2FFF779BF7F31C3
:10210000FAE7704770B5064614460D46FA20FEF70A
:102110003DFC0220FFF76CFF3220FEF737FC2E4318
:10212000264346F02000FFF763FF3220FEF72EFC27
:102130000620FFF75DFF3220FEF728FC0E20FFF798
:1021400057FF3220FEF722FC0C20FFF751FF322010
:10215000FEF71CFC0120FFF74BFFBDE87040642038
:10216000FEF714BC10B5044606E000BFFFF7BAFF47
:1021700014F8010BFFF7B0FE20780028F6D1BDE877
:102180001040FFF7AFBF10B51446FFF7B0FF204671
:10219000BDE81040FFF7E6BF9AB0FEF71FFDFFF75E
:1021A00065FCFFF735FB8648416941F0010141615B
:1021B0004069002200F00100189011460B20FEF744
:1021C0006BFD0B20FEF75AFDFFF7BCFAFFF782FB11
:1021D000FFF7FCFB00217B48FFF764FA04217948F4
:1021E000FFF760FA08217748FFF75CFA0C21754881
:1021F000FFF758FA734800214830FFF753FA0021DF
:1022000008220846FFF77EFF20226F496846FDF747
:102210008BFF6D492022203108A8FDF785FF6A4910
:102220002022403110A8FDF77FFF012167A2084658
:10223000FFF7A9FF68A201210220FFF7A4FF4FF4D6
:10224000FA742046FEF7A2FBFFF7C8FE5D490322A1
:102250009031A1F1C000FEF703FA01215BA208460C
:10226000FFF791FF5CA201210220FFF78CFF2046BF
:10227000FEF78CFBFFF7B2FE524E5B4C06F14807AF
:1022800006F1AC0540F6B878207800282CD06078AC
:1022900008B12A6845E055A168462A68FFF738FD6D
:1022A00057A108A86A69FFF733FD56A110A8AA69CB
:1022B000FFF72EFD01216A460846FFF764FF08AAD2
:1022C00001210220FFF75FFF10AA02210120FFF782
:1022D0005AFF3168206948633168606988633168F2
:1022E000A069C863A06840E04FF400614848FEF769
:1022F0005DFC00B1012000F08DF8607800283148C5
:10230000A0F130003CD0FEF7A9F82A68642002FB57
:1023100000F1B1FBF8F1E16069694143B1FBF8F00C
:10232000606032A16846FFF7F3FC35A108A86A692E
:10233000FFF7EEFC33A110A8AA69FFF7E9FC012121
:102340006A460846FFF71FFF08AA01210220FFF78F
:102350001AFF10AA02210120FFF715FF3168E0687B
:102360004863316888633168C863316808643968D4
:10237000606848630A20FEF709FBFFF72FFE83E73A
:10238000FEF76CF86968642041434046B1FBF0F108
:102390002161A96864225143B1FBF0F16161E968F0
:1023A0005143B1FBF0F1A16129695143B1FBF8F14F
:1023B000A16069695143B1FBF8F060606BE7000010
:1023C000001002405C0000202424000866696C6153
:1023D0006D656E74000000006765726920646F6E41
:1023E0007573756D000000000000002061646320BB
:1023F000416C6C4D6F746F7273203D20256400003A
:1024000061646320686561746572203D2025640005
:1024100000080140024900B10120487070470000E7
:10242000000000202020000000000000000000004C
:10243000000000000000000000000000000000009C
:10244000000000002020000000000000000000004C
:10245000000000000000000000000000000000007C
:10246000000000002020000000000000000000002C
:10247000000000000000000000000000000000005C
:102480000000000000000000000000000102030442
:1024900006070809B4240008000000202C000000F2
:1024A000581D0008E02400082C0000203C05000016
:1024B000681D00080000000000000000000000008F
:1024C000000000000000000000000000000000000C
:1024D0000100000010000000000000000024F400D3
:04000005080000ED02
:00000001FF
